{
  "contractName": "VerifyCertificate",
  "abi": [
    {
      "inputs": [
        {
          "internalType": "bytes32[]",
          "name": "proof",
          "type": "bytes32[]"
        },
        {
          "internalType": "bytes32",
          "name": "root",
          "type": "bytes32"
        },
        {
          "internalType": "bytes32",
          "name": "leaf",
          "type": "bytes32"
        }
      ],
      "name": "verify",
      "outputs": [
        {
          "internalType": "bool",
          "name": "",
          "type": "bool"
        }
      ],
      "stateMutability": "pure",
      "type": "function",
      "constant": true
    }
  ],
  "bytecode": "0x608060405234801561001057600080fd5b50610453806100206000396000f3fe608060405234801561001057600080fd5b506004361061002b5760003560e01c80635a9a49c714610030575b600080fd5b61004a600480360381019061004591906102c8565b610060565b6040516100579190610352565b60405180910390f35b600061006d848484610076565b90509392505050565b600082610083858461008d565b1490509392505050565b60008082905060005b84518110156100d8576100c3828683815181106100b6576100b561036d565b5b60200260200101516100e3565b915080806100d0906103d5565b915050610096565b508091505092915050565b60008183106100fb576100f6828461010e565b610106565b610105838361010e565b5b905092915050565b600082600052816020526040600020905092915050565b6000604051905090565b600080fd5b600080fd5b600080fd5b6000601f19601f8301169050919050565b7f4e487b7100000000000000000000000000000000000000000000000000000000600052604160045260246000fd5b6101878261013e565b810181811067ffffffffffffffff821117156101a6576101a561014f565b5b80604052505050565b60006101b9610125565b90506101c5828261017e565b919050565b600067ffffffffffffffff8211156101e5576101e461014f565b5b602082029050602081019050919050565b600080fd5b6000819050919050565b61020e816101fb565b811461021957600080fd5b50565b60008135905061022b81610205565b92915050565b600061024461023f846101ca565b6101af565b90508083825260208201905060208402830185811115610267576102666101f6565b5b835b81811015610290578061027c888261021c565b845260208401935050602081019050610269565b5050509392505050565b600082601f8301126102af576102ae610139565b5b81356102bf848260208601610231565b91505092915050565b6000806000606084860312156102e1576102e061012f565b5b600084013567ffffffffffffffff8111156102ff576102fe610134565b5b61030b8682870161029a565b935050602061031c8682870161021c565b925050604061032d8682870161021c565b9150509250925092565b60008115159050919050565b61034c81610337565b82525050565b60006020820190506103676000830184610343565b92915050565b7f4e487b7100000000000000000000000000000000000000000000000000000000600052603260045260246000fd5b7f4e487b7100000000000000000000000000000000000000000000000000000000600052601160045260246000fd5b6000819050919050565b60006103e0826103cb565b91507fffffffffffffffffffffffffffffffffffffffffffffffffffffffffffffffff82036104125761041161039c565b5b60018201905091905056fea2646970667358221220e7b87d99f04e984fd69c328b239a75891e8d6adab60bc3eea0f08400634255c764736f6c634300080d0033",
  "immutableReferences": {},
  "source": "// SPDX-License-Identifier: MIT\npragma solidity >=0.4.22 <0.9.0;\n\nimport \"@openzeppelin/contracts/utils/cryptography/MerkleProof.sol\";\n\ncontract VerifyCertificate {\n\n  function verify(\n    bytes32[] memory proof,\n    bytes32 root,\n    bytes32 leaf\n    ) public pure returns (bool) {\n    return MerkleProof.verify(proof, root, leaf);\n  }\n\n}",
  "sourcePath": "/Users/alex/Projects/blockchain-academic-certificates/contracts/VerifyCertificate.sol",
  "compiler": {
    "name": "solc",
    "version": "0.8.13+commit.abaa5c0e.Emscripten.clang"
  },
  "schemaVersion": "3.4.7",
  "updatedAt": "2022-07-04T16:23:52.026Z",
  "networkType": "ethereum",
  "devdoc": {
    "kind": "dev",
    "methods": {},
    "version": 1
  },
  "userdoc": {
    "kind": "user",
    "methods": {},
    "version": 1
  }
}